{
  "contracts/CondominiumContract.sol": {
    "Condominium": {
      "abi": [
        {
          "inputs": [],
          "stateMutability": "nonpayable",
          "type": "constructor"
        },
        {
          "inputs": [],
          "name": "condominiumDefaultFee",
          "outputs": [
            {
              "internalType": "uint256",
              "name": "",
              "type": "uint256"
            }
          ],
          "stateMutability": "view",
          "type": "function"
        },
        {
          "inputs": [],
          "name": "condominiumManager",
          "outputs": [
            {
              "internalType": "address",
              "name": "",
              "type": "address"
            }
          ],
          "stateMutability": "view",
          "type": "function"
        },
        {
          "inputs": [],
          "name": "condominiumName",
          "outputs": [
            {
              "internalType": "string",
              "name": "",
              "type": "string"
            }
          ],
          "stateMutability": "view",
          "type": "function"
        },
        {
          "inputs": [],
          "name": "getCondominiumBalance",
          "outputs": [
            {
              "internalType": "uint256",
              "name": "",
              "type": "uint256"
            }
          ],
          "stateMutability": "view",
          "type": "function"
        },
        {
          "inputs": [
            {
              "internalType": "address payable",
              "name": "_to",
              "type": "address"
            },
            {
              "internalType": "uint256",
              "name": "_total",
              "type": "uint256"
            },
            {
              "internalType": "string",
              "name": "_reason",
              "type": "string"
            }
          ],
          "name": "payCondominiumBill",
          "outputs": [],
          "stateMutability": "nonpayable",
          "type": "function"
        },
        {
          "inputs": [],
          "name": "payCondominiumFee",
          "outputs": [],
          "stateMutability": "payable",
          "type": "function"
        },
        {
          "inputs": [
            {
              "internalType": "uint256",
              "name": "_defaultFee",
              "type": "uint256"
            }
          ],
          "name": "setCondominiumDefaultFee",
          "outputs": [],
          "stateMutability": "nonpayable",
          "type": "function"
        },
        {
          "inputs": [
            {
              "internalType": "string",
              "name": "_name",
              "type": "string"
            }
          ],
          "name": "setCondominiumName",
          "outputs": [],
          "stateMutability": "nonpayable",
          "type": "function"
        },
        {
          "inputs": [
            {
              "internalType": "address",
              "name": "",
              "type": "address"
            }
          ],
          "name": "withdrawHistory",
          "outputs": [
            {
              "internalType": "string",
              "name": "",
              "type": "string"
            }
          ],
          "stateMutability": "view",
          "type": "function"
        }
      ],
      "evm": {
        "bytecode": {
          "linkReferences": {},
          "object": "60806040526000600460006101000a81548160ff02191690831515021790555034801561002b57600080fd5b50336000806101000a81548173ffffffffffffffffffffffffffffffffffffffff021916908373ffffffffffffffffffffffffffffffffffffffff1602179055506112f88061007b6000396000f3fe6080604052600436106100865760003560e01c80633986fc63116100595780633986fc6314610149578063451cf070146101725780635816592f1461019b5780635898b043146101c457806360697c4a146101ce57610086565b80630bba18471461008b57806323ebe350146100b65780632eef4d37146100e1578063368426111461010c575b600080fd5b34801561009757600080fd5b506100a06101f9565b6040516100ad9190610f92565b60405180910390f35b3480156100c257600080fd5b506100cb610287565b6040516100d89190610f77565b60405180910390f35b3480156100ed57600080fd5b506100f66102ab565b6040516101039190611094565b60405180910390f35b34801561011857600080fd5b50610133600480360381019061012e9190610a4d565b6102b1565b6040516101409190610f92565b60405180910390f35b34801561015557600080fd5b50610170600480360381019061016b9190610b1e565b610351565b005b34801561017e57600080fd5b5061019960048036038101906101949190610add565b6103e9565b005b3480156101a757600080fd5b506101c260048036038101906101bd9190610a76565b610491565b005b6101cc610716565b005b3480156101da57600080fd5b506101e361086c565b6040516101f09190611094565b60405180910390f35b60018054610206906111d2565b80601f0160208091040260200160405190810160405280929190818152602001828054610232906111d2565b801561027f5780601f106102545761010080835404028352916020019161027f565b820191906000526020600020905b81548152906001019060200180831161026257829003601f168201915b505050505081565b60008054906101000a900473ffffffffffffffffffffffffffffffffffffffff1681565b60025481565b600360205280600052604060002060009150905080546102d0906111d2565b80601f01602080910402602001604051908101604052809291908181526020018280546102fc906111d2565b80156103495780601f1061031e57610100808354040283529160200191610349565b820191906000526020600020905b81548152906001019060200180831161032c57829003601f168201915b505050505081565b60008054906101000a900473ffffffffffffffffffffffffffffffffffffffff1673ffffffffffffffffffffffffffffffffffffffff163373ffffffffffffffffffffffffffffffffffffffff16146103df576040517f08c379a00000000000000000000000000000000000000000000000000000000081526004016103d690610ff4565b60405180910390fd5b8060028190555050565b60008054906101000a900473ffffffffffffffffffffffffffffffffffffffff1673ffffffffffffffffffffffffffffffffffffffff163373ffffffffffffffffffffffffffffffffffffffff1614610477576040517f08c379a000000000000000000000000000000000000000000000000000000000815260040161046e90611014565b60405180910390fd5b806001908051906020019061048d929190610903565b5050565b600460009054906101000a900460ff16156104e1576040517f08c379a00000000000000000000000000000000000000000000000000000000081526004016104d890610fd4565b60405180910390fd5b6001600460006101000a81548160ff02191690831515021790555060008054906101000a900473ffffffffffffffffffffffffffffffffffffffff1673ffffffffffffffffffffffffffffffffffffffff163373ffffffffffffffffffffffffffffffffffffffff161461058a576040517f08c379a000000000000000000000000000000000000000000000000000000000815260040161058190610fb4565b60405180910390fd5b61059261086c565b8211156105d4576040517f08c379a00000000000000000000000000000000000000000000000000000000081526004016105cb90611074565b60405180910390fd5b80826040516020016105e7929190610f24565b604051602081830303815290604052600360008573ffffffffffffffffffffffffffffffffffffffff1673ffffffffffffffffffffffffffffffffffffffff1681526020019081526020016000209080519060200190610648929190610903565b5060008373ffffffffffffffffffffffffffffffffffffffff168360405161066f90610f62565b60006040518083038185875af1925050503d80600081146106ac576040519150601f19603f3d011682016040523d82523d6000602084013e6106b1565b606091505b50509050806106f5576040517f08c379a00000000000000000000000000000000000000000000000000000000081526004016106ec90611034565b60405180910390fd5b6000600460006101000a81548160ff02191690831515021790555050505050565b600460009054906101000a900460ff1615610766576040517f08c379a000000000000000000000000000000000000000000000000000000000815260040161075d90610fd4565b60405180910390fd5b6001600460006101000a81548160ff02191690831515021790555060008060009054906101000a900473ffffffffffffffffffffffffffffffffffffffff1673ffffffffffffffffffffffffffffffffffffffff16346040516107c890610f62565b60006040518083038185875af1925050503d8060008114610805576040519150601f19603f3d011682016040523d82523d6000602084013e61080a565b606091505b505090508061084e576040517f08c379a000000000000000000000000000000000000000000000000000000000815260040161084590611034565b60405180910390fd5b6000600460006101000a81548160ff02191690831515021790555050565b60008060009054906101000a900473ffffffffffffffffffffffffffffffffffffffff1673ffffffffffffffffffffffffffffffffffffffff163373ffffffffffffffffffffffffffffffffffffffff16146108fd576040517f08c379a00000000000000000000000000000000000000000000000000000000081526004016108f490611054565b60405180910390fd5b47905090565b82805461090f906111d2565b90600052602060002090601f0160209004810192826109315760008555610978565b82601f1061094a57805160ff1916838001178555610978565b82800160010185558215610978579182015b8281111561097757825182559160200191906001019061095c565b5b5090506109859190610989565b5090565b5b808211156109a257600081600090555060010161098a565b5090565b60006109b96109b4846110e0565b6110af565b9050828152602081018484840111156109d157600080fd5b6109dc848285611190565b509392505050565b6000813590506109f38161127d565b92915050565b600081359050610a0881611294565b92915050565b600082601f830112610a1f57600080fd5b8135610a2f8482602086016109a6565b91505092915050565b600081359050610a47816112ab565b92915050565b600060208284031215610a5f57600080fd5b6000610a6d848285016109e4565b91505092915050565b600080600060608486031215610a8b57600080fd5b6000610a99868287016109f9565b9350506020610aaa86828701610a38565b925050604084013567ffffffffffffffff811115610ac757600080fd5b610ad386828701610a0e565b9150509250925092565b600060208284031215610aef57600080fd5b600082013567ffffffffffffffff811115610b0957600080fd5b610b1584828501610a0e565b91505092915050565b600060208284031215610b3057600080fd5b6000610b3e84828501610a38565b91505092915050565b610b5081611142565b82525050565b6000610b6182611110565b610b6b8185611126565b9350610b7b81856020860161119f565b610b848161126c565b840191505092915050565b6000610b9a82611110565b610ba48185611137565b9350610bb481856020860161119f565b80840191505092915050565b6000610bcd603783611126565b91507f596f75206d75737420626520746865206d616e61676572206f6620746865206360008301527f6f6e646f6d696e69756d20746f2077697468647261772e0000000000000000006020830152604082019050919050565b6000610c33601883611126565b91507f5265656e7472616e742063616c6c2064657465637465642100000000000000006000830152602082019050919050565b6000610c73604283611126565b91507f596f75206d75737420626520746865206d616e6167657220746f20736574207460008301527f68652064656661756c7420666565206f662074686520636f6e646f6d696e697560208301527f6d2e0000000000000000000000000000000000000000000000000000000000006040830152606082019050919050565b6000610cff600983611137565b91507f2e20546f74616c3a2000000000000000000000000000000000000000000000006000830152600982019050919050565b6000610d3f600883611137565b91507f526561736f6e3a200000000000000000000000000000000000000000000000006000830152600882019050919050565b6000610d7f603b83611126565b91507f596f75206d75737420626520746865206d616e6167657220746f20736574207460008301527f6865206e616d65206f662074686520636f6e646f6d696e69756d2e00000000006020830152604082019050919050565b6000610de560008361111b565b9150600082019050919050565b6000610dff601083611126565b91507f5472616e73666572206661696c65642e000000000000000000000000000000006000830152602082019050919050565b6000610e3f603f83611126565b91507f596f75206d75737420626520746865206d616e61676572206f6620746865206360008301527f6f6e646f6d696e69756d20746f2073656520616c6c2062616c616e6365732e006020830152604082019050919050565b6000610ea5602c83611126565b91507f596f75206861766520696e7375666669656e742066756e647320746f20646f2060008301527f746865207061796d656e742e00000000000000000000000000000000000000006020830152604082019050919050565b610f0781611186565b82525050565b610f1e610f1982611186565b611204565b82525050565b6000610f2f82610d32565b9150610f3b8285610b8f565b9150610f4682610cf2565b9150610f528284610f0d565b6020820191508190509392505050565b6000610f6d82610dd8565b9150819050919050565b6000602082019050610f8c6000830184610b47565b92915050565b60006020820190508181036000830152610fac8184610b56565b905092915050565b60006020820190508181036000830152610fcd81610bc0565b9050919050565b60006020820190508181036000830152610fed81610c26565b9050919050565b6000602082019050818103600083015261100d81610c66565b9050919050565b6000602082019050818103600083015261102d81610d72565b9050919050565b6000602082019050818103600083015261104d81610df2565b9050919050565b6000602082019050818103600083015261106d81610e32565b9050919050565b6000602082019050818103600083015261108d81610e98565b9050919050565b60006020820190506110a96000830184610efe565b92915050565b6000604051905081810181811067ffffffffffffffff821117156110d6576110d561123d565b5b8060405250919050565b600067ffffffffffffffff8211156110fb576110fa61123d565b5b601f19601f8301169050602081019050919050565b600081519050919050565b600081905092915050565b600082825260208201905092915050565b600081905092915050565b600061114d82611166565b9050919050565b600061115f82611166565b9050919050565b600073ffffffffffffffffffffffffffffffffffffffff82169050919050565b6000819050919050565b82818337600083830152505050565b60005b838110156111bd5780820151818401526020810190506111a2565b838111156111cc576000848401525b50505050565b600060028204905060018216806111ea57607f821691505b602082108114156111fe576111fd61120e565b5b50919050565b6000819050919050565b7f4e487b7100000000000000000000000000000000000000000000000000000000600052602260045260246000fd5b7f4e487b7100000000000000000000000000000000000000000000000000000000600052604160045260246000fd5b6000601f19601f8301169050919050565b61128681611142565b811461129157600080fd5b50565b61129d81611154565b81146112a857600080fd5b50565b6112b481611186565b81146112bf57600080fd5b5056fea2646970667358221220819dd1b1b53ec15b50e57dcc9c5e795533a59febbdca93bd66dc28f25be8377264736f6c63430008000033",
          "opcodes": "PUSH1 0x80 PUSH1 0x40 MSTORE PUSH1 0x0 PUSH1 0x4 PUSH1 0x0 PUSH2 0x100 EXP DUP2 SLOAD DUP2 PUSH1 0xFF MUL NOT AND SWAP1 DUP4 ISZERO ISZERO MUL OR SWAP1 SSTORE POP CALLVALUE DUP1 ISZERO PUSH2 0x2B JUMPI PUSH1 0x0 DUP1 REVERT JUMPDEST POP CALLER PUSH1 0x0 DUP1 PUSH2 0x100 EXP DUP2 SLOAD DUP2 PUSH20 0xFFFFFFFFFFFFFFFFFFFFFFFFFFFFFFFFFFFFFFFF MUL NOT AND SWAP1 DUP4 PUSH20 0xFFFFFFFFFFFFFFFFFFFFFFFFFFFFFFFFFFFFFFFF AND MUL OR SWAP1 SSTORE POP PUSH2 0x12F8 DUP1 PUSH2 0x7B PUSH1 0x0 CODECOPY PUSH1 0x0 RETURN INVALID PUSH1 0x80 PUSH1 0x40 MSTORE PUSH1 0x4 CALLDATASIZE LT PUSH2 0x86 JUMPI PUSH1 0x0 CALLDATALOAD PUSH1 0xE0 SHR DUP1 PUSH4 0x3986FC63 GT PUSH2 0x59 JUMPI DUP1 PUSH4 0x3986FC63 EQ PUSH2 0x149 JUMPI DUP1 PUSH4 0x451CF070 EQ PUSH2 0x172 JUMPI DUP1 PUSH4 0x5816592F EQ PUSH2 0x19B JUMPI DUP1 PUSH4 0x5898B043 EQ PUSH2 0x1C4 JUMPI DUP1 PUSH4 0x60697C4A EQ PUSH2 0x1CE JUMPI PUSH2 0x86 JUMP JUMPDEST DUP1 PUSH4 0xBBA1847 EQ PUSH2 0x8B JUMPI DUP1 PUSH4 0x23EBE350 EQ PUSH2 0xB6 JUMPI DUP1 PUSH4 0x2EEF4D37 EQ PUSH2 0xE1 JUMPI DUP1 PUSH4 0x36842611 EQ PUSH2 0x10C JUMPI JUMPDEST PUSH1 0x0 DUP1 REVERT JUMPDEST CALLVALUE DUP1 ISZERO PUSH2 0x97 JUMPI PUSH1 0x0 DUP1 REVERT JUMPDEST POP PUSH2 0xA0 PUSH2 0x1F9 JUMP JUMPDEST PUSH1 0x40 MLOAD PUSH2 0xAD SWAP2 SWAP1 PUSH2 0xF92 JUMP JUMPDEST PUSH1 0x40 MLOAD DUP1 SWAP2 SUB SWAP1 RETURN JUMPDEST CALLVALUE DUP1 ISZERO PUSH2 0xC2 JUMPI PUSH1 0x0 DUP1 REVERT JUMPDEST POP PUSH2 0xCB PUSH2 0x287 JUMP JUMPDEST PUSH1 0x40 MLOAD PUSH2 0xD8 SWAP2 SWAP1 PUSH2 0xF77 JUMP JUMPDEST PUSH1 0x40 MLOAD DUP1 SWAP2 SUB SWAP1 RETURN JUMPDEST CALLVALUE DUP1 ISZERO PUSH2 0xED JUMPI PUSH1 0x0 DUP1 REVERT JUMPDEST POP PUSH2 0xF6 PUSH2 0x2AB JUMP JUMPDEST PUSH1 0x40 MLOAD PUSH2 0x103 SWAP2 SWAP1 PUSH2 0x1094 JUMP JUMPDEST PUSH1 0x40 MLOAD DUP1 SWAP2 SUB SWAP1 RETURN JUMPDEST CALLVALUE DUP1 ISZERO PUSH2 0x118 JUMPI PUSH1 0x0 DUP1 REVERT JUMPDEST POP PUSH2 0x133 PUSH1 0x4 DUP1 CALLDATASIZE SUB DUP2 ADD SWAP1 PUSH2 0x12E SWAP2 SWAP1 PUSH2 0xA4D JUMP JUMPDEST PUSH2 0x2B1 JUMP JUMPDEST PUSH1 0x40 MLOAD PUSH2 0x140 SWAP2 SWAP1 PUSH2 0xF92 JUMP JUMPDEST PUSH1 0x40 MLOAD DUP1 SWAP2 SUB SWAP1 RETURN JUMPDEST CALLVALUE DUP1 ISZERO PUSH2 0x155 JUMPI PUSH1 0x0 DUP1 REVERT JUMPDEST POP PUSH2 0x170 PUSH1 0x4 DUP1 CALLDATASIZE SUB DUP2 ADD SWAP1 PUSH2 0x16B SWAP2 SWAP1 PUSH2 0xB1E JUMP JUMPDEST PUSH2 0x351 JUMP JUMPDEST STOP JUMPDEST CALLVALUE DUP1 ISZERO PUSH2 0x17E JUMPI PUSH1 0x0 DUP1 REVERT JUMPDEST POP PUSH2 0x199 PUSH1 0x4 DUP1 CALLDATASIZE SUB DUP2 ADD SWAP1 PUSH2 0x194 SWAP2 SWAP1 PUSH2 0xADD JUMP JUMPDEST PUSH2 0x3E9 JUMP JUMPDEST STOP JUMPDEST CALLVALUE DUP1 ISZERO PUSH2 0x1A7 JUMPI PUSH1 0x0 DUP1 REVERT JUMPDEST POP PUSH2 0x1C2 PUSH1 0x4 DUP1 CALLDATASIZE SUB DUP2 ADD SWAP1 PUSH2 0x1BD SWAP2 SWAP1 PUSH2 0xA76 JUMP JUMPDEST PUSH2 0x491 JUMP JUMPDEST STOP JUMPDEST PUSH2 0x1CC PUSH2 0x716 JUMP JUMPDEST STOP JUMPDEST CALLVALUE DUP1 ISZERO PUSH2 0x1DA JUMPI PUSH1 0x0 DUP1 REVERT JUMPDEST POP PUSH2 0x1E3 PUSH2 0x86C JUMP JUMPDEST PUSH1 0x40 MLOAD PUSH2 0x1F0 SWAP2 SWAP1 PUSH2 0x1094 JUMP JUMPDEST PUSH1 0x40 MLOAD DUP1 SWAP2 SUB SWAP1 RETURN JUMPDEST PUSH1 0x1 DUP1 SLOAD PUSH2 0x206 SWAP1 PUSH2 0x11D2 JUMP JUMPDEST DUP1 PUSH1 0x1F ADD PUSH1 0x20 DUP1 SWAP2 DIV MUL PUSH1 0x20 ADD PUSH1 0x40 MLOAD SWAP1 DUP2 ADD PUSH1 0x40 MSTORE DUP1 SWAP3 SWAP2 SWAP1 DUP2 DUP2 MSTORE PUSH1 0x20 ADD DUP3 DUP1 SLOAD PUSH2 0x232 SWAP1 PUSH2 0x11D2 JUMP JUMPDEST DUP1 ISZERO PUSH2 0x27F JUMPI DUP1 PUSH1 0x1F LT PUSH2 0x254 JUMPI PUSH2 0x100 DUP1 DUP4 SLOAD DIV MUL DUP4 MSTORE SWAP2 PUSH1 0x20 ADD SWAP2 PUSH2 0x27F JUMP JUMPDEST DUP3 ADD SWAP2 SWAP1 PUSH1 0x0 MSTORE PUSH1 0x20 PUSH1 0x0 KECCAK256 SWAP1 JUMPDEST DUP2 SLOAD DUP2 MSTORE SWAP1 PUSH1 0x1 ADD SWAP1 PUSH1 0x20 ADD DUP1 DUP4 GT PUSH2 0x262 JUMPI DUP3 SWAP1 SUB PUSH1 0x1F AND DUP3 ADD SWAP2 JUMPDEST POP POP POP POP POP DUP2 JUMP JUMPDEST PUSH1 0x0 DUP1 SLOAD SWAP1 PUSH2 0x100 EXP SWAP1 DIV PUSH20 0xFFFFFFFFFFFFFFFFFFFFFFFFFFFFFFFFFFFFFFFF AND DUP2 JUMP JUMPDEST PUSH1 0x2 SLOAD DUP2 JUMP JUMPDEST PUSH1 0x3 PUSH1 0x20 MSTORE DUP1 PUSH1 0x0 MSTORE PUSH1 0x40 PUSH1 0x0 KECCAK256 PUSH1 0x0 SWAP2 POP SWAP1 POP DUP1 SLOAD PUSH2 0x2D0 SWAP1 PUSH2 0x11D2 JUMP JUMPDEST DUP1 PUSH1 0x1F ADD PUSH1 0x20 DUP1 SWAP2 DIV MUL PUSH1 0x20 ADD PUSH1 0x40 MLOAD SWAP1 DUP2 ADD PUSH1 0x40 MSTORE DUP1 SWAP3 SWAP2 SWAP1 DUP2 DUP2 MSTORE PUSH1 0x20 ADD DUP3 DUP1 SLOAD PUSH2 0x2FC SWAP1 PUSH2 0x11D2 JUMP JUMPDEST DUP1 ISZERO PUSH2 0x349 JUMPI DUP1 PUSH1 0x1F LT PUSH2 0x31E JUMPI PUSH2 0x100 DUP1 DUP4 SLOAD DIV MUL DUP4 MSTORE SWAP2 PUSH1 0x20 ADD SWAP2 PUSH2 0x349 JUMP JUMPDEST DUP3 ADD SWAP2 SWAP1 PUSH1 0x0 MSTORE PUSH1 0x20 PUSH1 0x0 KECCAK256 SWAP1 JUMPDEST DUP2 SLOAD DUP2 MSTORE SWAP1 PUSH1 0x1 ADD SWAP1 PUSH1 0x20 ADD DUP1 DUP4 GT PUSH2 0x32C JUMPI DUP3 SWAP1 SUB PUSH1 0x1F AND DUP3 ADD SWAP2 JUMPDEST POP POP POP POP POP DUP2 JUMP JUMPDEST PUSH1 0x0 DUP1 SLOAD SWAP1 PUSH2 0x100 EXP SWAP1 DIV PUSH20 0xFFFFFFFFFFFFFFFFFFFFFFFFFFFFFFFFFFFFFFFF AND PUSH20 0xFFFFFFFFFFFFFFFFFFFFFFFFFFFFFFFFFFFFFFFF AND CALLER PUSH20 0xFFFFFFFFFFFFFFFFFFFFFFFFFFFFFFFFFFFFFFFF AND EQ PUSH2 0x3DF JUMPI PUSH1 0x40 MLOAD PUSH32 0x8C379A000000000000000000000000000000000000000000000000000000000 DUP2 MSTORE PUSH1 0x4 ADD PUSH2 0x3D6 SWAP1 PUSH2 0xFF4 JUMP JUMPDEST PUSH1 0x40 MLOAD DUP1 SWAP2 SUB SWAP1 REVERT JUMPDEST DUP1 PUSH1 0x2 DUP2 SWAP1 SSTORE POP POP JUMP JUMPDEST PUSH1 0x0 DUP1 SLOAD SWAP1 PUSH2 0x100 EXP SWAP1 DIV PUSH20 0xFFFFFFFFFFFFFFFFFFFFFFFFFFFFFFFFFFFFFFFF AND PUSH20 0xFFFFFFFFFFFFFFFFFFFFFFFFFFFFFFFFFFFFFFFF AND CALLER PUSH20 0xFFFFFFFFFFFFFFFFFFFFFFFFFFFFFFFFFFFFFFFF AND EQ PUSH2 0x477 JUMPI PUSH1 0x40 MLOAD PUSH32 0x8C379A000000000000000000000000000000000000000000000000000000000 DUP2 MSTORE PUSH1 0x4 ADD PUSH2 0x46E SWAP1 PUSH2 0x1014 JUMP JUMPDEST PUSH1 0x40 MLOAD DUP1 SWAP2 SUB SWAP1 REVERT JUMPDEST DUP1 PUSH1 0x1 SWAP1 DUP1 MLOAD SWAP1 PUSH1 0x20 ADD SWAP1 PUSH2 0x48D SWAP3 SWAP2 SWAP1 PUSH2 0x903 JUMP JUMPDEST POP POP JUMP JUMPDEST PUSH1 0x4 PUSH1 0x0 SWAP1 SLOAD SWAP1 PUSH2 0x100 EXP SWAP1 DIV PUSH1 0xFF AND ISZERO PUSH2 0x4E1 JUMPI PUSH1 0x40 MLOAD PUSH32 0x8C379A000000000000000000000000000000000000000000000000000000000 DUP2 MSTORE PUSH1 0x4 ADD PUSH2 0x4D8 SWAP1 PUSH2 0xFD4 JUMP JUMPDEST PUSH1 0x40 MLOAD DUP1 SWAP2 SUB SWAP1 REVERT JUMPDEST PUSH1 0x1 PUSH1 0x4 PUSH1 0x0 PUSH2 0x100 EXP DUP2 SLOAD DUP2 PUSH1 0xFF MUL NOT AND SWAP1 DUP4 ISZERO ISZERO MUL OR SWAP1 SSTORE POP PUSH1 0x0 DUP1 SLOAD SWAP1 PUSH2 0x100 EXP SWAP1 DIV PUSH20 0xFFFFFFFFFFFFFFFFFFFFFFFFFFFFFFFFFFFFFFFF AND PUSH20 0xFFFFFFFFFFFFFFFFFFFFFFFFFFFFFFFFFFFFFFFF AND CALLER PUSH20 0xFFFFFFFFFFFFFFFFFFFFFFFFFFFFFFFFFFFFFFFF AND EQ PUSH2 0x58A JUMPI PUSH1 0x40 MLOAD PUSH32 0x8C379A000000000000000000000000000000000000000000000000000000000 DUP2 MSTORE PUSH1 0x4 ADD PUSH2 0x581 SWAP1 PUSH2 0xFB4 JUMP JUMPDEST PUSH1 0x40 MLOAD DUP1 SWAP2 SUB SWAP1 REVERT JUMPDEST PUSH2 0x592 PUSH2 0x86C JUMP JUMPDEST DUP3 GT ISZERO PUSH2 0x5D4 JUMPI PUSH1 0x40 MLOAD PUSH32 0x8C379A000000000000000000000000000000000000000000000000000000000 DUP2 MSTORE PUSH1 0x4 ADD PUSH2 0x5CB SWAP1 PUSH2 0x1074 JUMP JUMPDEST PUSH1 0x40 MLOAD DUP1 SWAP2 SUB SWAP1 REVERT JUMPDEST DUP1 DUP3 PUSH1 0x40 MLOAD PUSH1 0x20 ADD PUSH2 0x5E7 SWAP3 SWAP2 SWAP1 PUSH2 0xF24 JUMP JUMPDEST PUSH1 0x40 MLOAD PUSH1 0x20 DUP2 DUP4 SUB SUB DUP2 MSTORE SWAP1 PUSH1 0x40 MSTORE PUSH1 0x3 PUSH1 0x0 DUP6 PUSH20 0xFFFFFFFFFFFFFFFFFFFFFFFFFFFFFFFFFFFFFFFF AND PUSH20 0xFFFFFFFFFFFFFFFFFFFFFFFFFFFFFFFFFFFFFFFF AND DUP2 MSTORE PUSH1 0x20 ADD SWAP1 DUP2 MSTORE PUSH1 0x20 ADD PUSH1 0x0 KECCAK256 SWAP1 DUP1 MLOAD SWAP1 PUSH1 0x20 ADD SWAP1 PUSH2 0x648 SWAP3 SWAP2 SWAP1 PUSH2 0x903 JUMP JUMPDEST POP PUSH1 0x0 DUP4 PUSH20 0xFFFFFFFFFFFFFFFFFFFFFFFFFFFFFFFFFFFFFFFF AND DUP4 PUSH1 0x40 MLOAD PUSH2 0x66F SWAP1 PUSH2 0xF62 JUMP JUMPDEST PUSH1 0x0 PUSH1 0x40 MLOAD DUP1 DUP4 SUB DUP2 DUP6 DUP8 GAS CALL SWAP3 POP POP POP RETURNDATASIZE DUP1 PUSH1 0x0 DUP2 EQ PUSH2 0x6AC JUMPI PUSH1 0x40 MLOAD SWAP2 POP PUSH1 0x1F NOT PUSH1 0x3F RETURNDATASIZE ADD AND DUP3 ADD PUSH1 0x40 MSTORE RETURNDATASIZE DUP3 MSTORE RETURNDATASIZE PUSH1 0x0 PUSH1 0x20 DUP5 ADD RETURNDATACOPY PUSH2 0x6B1 JUMP JUMPDEST PUSH1 0x60 SWAP2 POP JUMPDEST POP POP SWAP1 POP DUP1 PUSH2 0x6F5 JUMPI PUSH1 0x40 MLOAD PUSH32 0x8C379A000000000000000000000000000000000000000000000000000000000 DUP2 MSTORE PUSH1 0x4 ADD PUSH2 0x6EC SWAP1 PUSH2 0x1034 JUMP JUMPDEST PUSH1 0x40 MLOAD DUP1 SWAP2 SUB SWAP1 REVERT JUMPDEST PUSH1 0x0 PUSH1 0x4 PUSH1 0x0 PUSH2 0x100 EXP DUP2 SLOAD DUP2 PUSH1 0xFF MUL NOT AND SWAP1 DUP4 ISZERO ISZERO MUL OR SWAP1 SSTORE POP POP POP POP POP JUMP JUMPDEST PUSH1 0x4 PUSH1 0x0 SWAP1 SLOAD SWAP1 PUSH2 0x100 EXP SWAP1 DIV PUSH1 0xFF AND ISZERO PUSH2 0x766 JUMPI PUSH1 0x40 MLOAD PUSH32 0x8C379A000000000000000000000000000000000000000000000000000000000 DUP2 MSTORE PUSH1 0x4 ADD PUSH2 0x75D SWAP1 PUSH2 0xFD4 JUMP JUMPDEST PUSH1 0x40 MLOAD DUP1 SWAP2 SUB SWAP1 REVERT JUMPDEST PUSH1 0x1 PUSH1 0x4 PUSH1 0x0 PUSH2 0x100 EXP DUP2 SLOAD DUP2 PUSH1 0xFF MUL NOT AND SWAP1 DUP4 ISZERO ISZERO MUL OR SWAP1 SSTORE POP PUSH1 0x0 DUP1 PUSH1 0x0 SWAP1 SLOAD SWAP1 PUSH2 0x100 EXP SWAP1 DIV PUSH20 0xFFFFFFFFFFFFFFFFFFFFFFFFFFFFFFFFFFFFFFFF AND PUSH20 0xFFFFFFFFFFFFFFFFFFFFFFFFFFFFFFFFFFFFFFFF AND CALLVALUE PUSH1 0x40 MLOAD PUSH2 0x7C8 SWAP1 PUSH2 0xF62 JUMP JUMPDEST PUSH1 0x0 PUSH1 0x40 MLOAD DUP1 DUP4 SUB DUP2 DUP6 DUP8 GAS CALL SWAP3 POP POP POP RETURNDATASIZE DUP1 PUSH1 0x0 DUP2 EQ PUSH2 0x805 JUMPI PUSH1 0x40 MLOAD SWAP2 POP PUSH1 0x1F NOT PUSH1 0x3F RETURNDATASIZE ADD AND DUP3 ADD PUSH1 0x40 MSTORE RETURNDATASIZE DUP3 MSTORE RETURNDATASIZE PUSH1 0x0 PUSH1 0x20 DUP5 ADD RETURNDATACOPY PUSH2 0x80A JUMP JUMPDEST PUSH1 0x60 SWAP2 POP JUMPDEST POP POP SWAP1 POP DUP1 PUSH2 0x84E JUMPI PUSH1 0x40 MLOAD PUSH32 0x8C379A000000000000000000000000000000000000000000000000000000000 DUP2 MSTORE PUSH1 0x4 ADD PUSH2 0x845 SWAP1 PUSH2 0x1034 JUMP JUMPDEST PUSH1 0x40 MLOAD DUP1 SWAP2 SUB SWAP1 REVERT JUMPDEST PUSH1 0x0 PUSH1 0x4 PUSH1 0x0 PUSH2 0x100 EXP DUP2 SLOAD DUP2 PUSH1 0xFF MUL NOT AND SWAP1 DUP4 ISZERO ISZERO MUL OR SWAP1 SSTORE POP POP JUMP JUMPDEST PUSH1 0x0 DUP1 PUSH1 0x0 SWAP1 SLOAD SWAP1 PUSH2 0x100 EXP SWAP1 DIV PUSH20 0xFFFFFFFFFFFFFFFFFFFFFFFFFFFFFFFFFFFFFFFF AND PUSH20 0xFFFFFFFFFFFFFFFFFFFFFFFFFFFFFFFFFFFFFFFF AND CALLER PUSH20 0xFFFFFFFFFFFFFFFFFFFFFFFFFFFFFFFFFFFFFFFF AND EQ PUSH2 0x8FD JUMPI PUSH1 0x40 MLOAD PUSH32 0x8C379A000000000000000000000000000000000000000000000000000000000 DUP2 MSTORE PUSH1 0x4 ADD PUSH2 0x8F4 SWAP1 PUSH2 0x1054 JUMP JUMPDEST PUSH1 0x40 MLOAD DUP1 SWAP2 SUB SWAP1 REVERT JUMPDEST SELFBALANCE SWAP1 POP SWAP1 JUMP JUMPDEST DUP3 DUP1 SLOAD PUSH2 0x90F SWAP1 PUSH2 0x11D2 JUMP JUMPDEST SWAP1 PUSH1 0x0 MSTORE PUSH1 0x20 PUSH1 0x0 KECCAK256 SWAP1 PUSH1 0x1F ADD PUSH1 0x20 SWAP1 DIV DUP2 ADD SWAP3 DUP3 PUSH2 0x931 JUMPI PUSH1 0x0 DUP6 SSTORE PUSH2 0x978 JUMP JUMPDEST DUP3 PUSH1 0x1F LT PUSH2 0x94A JUMPI DUP1 MLOAD PUSH1 0xFF NOT AND DUP4 DUP1 ADD OR DUP6 SSTORE PUSH2 0x978 JUMP JUMPDEST DUP3 DUP1 ADD PUSH1 0x1 ADD DUP6 SSTORE DUP3 ISZERO PUSH2 0x978 JUMPI SWAP2 DUP3 ADD JUMPDEST DUP3 DUP2 GT ISZERO PUSH2 0x977 JUMPI DUP3 MLOAD DUP3 SSTORE SWAP2 PUSH1 0x20 ADD SWAP2 SWAP1 PUSH1 0x1 ADD SWAP1 PUSH2 0x95C JUMP JUMPDEST JUMPDEST POP SWAP1 POP PUSH2 0x985 SWAP2 SWAP1 PUSH2 0x989 JUMP JUMPDEST POP SWAP1 JUMP JUMPDEST JUMPDEST DUP1 DUP3 GT ISZERO PUSH2 0x9A2 JUMPI PUSH1 0x0 DUP2 PUSH1 0x0 SWAP1 SSTORE POP PUSH1 0x1 ADD PUSH2 0x98A JUMP JUMPDEST POP SWAP1 JUMP JUMPDEST PUSH1 0x0 PUSH2 0x9B9 PUSH2 0x9B4 DUP5 PUSH2 0x10E0 JUMP JUMPDEST PUSH2 0x10AF JUMP JUMPDEST SWAP1 POP DUP3 DUP2 MSTORE PUSH1 0x20 DUP2 ADD DUP5 DUP5 DUP5 ADD GT ISZERO PUSH2 0x9D1 JUMPI PUSH1 0x0 DUP1 REVERT JUMPDEST PUSH2 0x9DC DUP5 DUP3 DUP6 PUSH2 0x1190 JUMP JUMPDEST POP SWAP4 SWAP3 POP POP POP JUMP JUMPDEST PUSH1 0x0 DUP2 CALLDATALOAD SWAP1 POP PUSH2 0x9F3 DUP2 PUSH2 0x127D JUMP JUMPDEST SWAP3 SWAP2 POP POP JUMP JUMPDEST PUSH1 0x0 DUP2 CALLDATALOAD SWAP1 POP PUSH2 0xA08 DUP2 PUSH2 0x1294 JUMP JUMPDEST SWAP3 SWAP2 POP POP JUMP JUMPDEST PUSH1 0x0 DUP3 PUSH1 0x1F DUP4 ADD SLT PUSH2 0xA1F JUMPI PUSH1 0x0 DUP1 REVERT JUMPDEST DUP2 CALLDATALOAD PUSH2 0xA2F DUP5 DUP3 PUSH1 0x20 DUP7 ADD PUSH2 0x9A6 JUMP JUMPDEST SWAP2 POP POP SWAP3 SWAP2 POP POP JUMP JUMPDEST PUSH1 0x0 DUP2 CALLDATALOAD SWAP1 POP PUSH2 0xA47 DUP2 PUSH2 0x12AB JUMP JUMPDEST SWAP3 SWAP2 POP POP JUMP JUMPDEST PUSH1 0x0 PUSH1 0x20 DUP3 DUP5 SUB SLT ISZERO PUSH2 0xA5F JUMPI PUSH1 0x0 DUP1 REVERT JUMPDEST PUSH1 0x0 PUSH2 0xA6D DUP5 DUP3 DUP6 ADD PUSH2 0x9E4 JUMP JUMPDEST SWAP2 POP POP SWAP3 SWAP2 POP POP JUMP JUMPDEST PUSH1 0x0 DUP1 PUSH1 0x0 PUSH1 0x60 DUP5 DUP7 SUB SLT ISZERO PUSH2 0xA8B JUMPI PUSH1 0x0 DUP1 REVERT JUMPDEST PUSH1 0x0 PUSH2 0xA99 DUP7 DUP3 DUP8 ADD PUSH2 0x9F9 JUMP JUMPDEST SWAP4 POP POP PUSH1 0x20 PUSH2 0xAAA DUP7 DUP3 DUP8 ADD PUSH2 0xA38 JUMP JUMPDEST SWAP3 POP POP PUSH1 0x40 DUP5 ADD CALLDATALOAD PUSH8 0xFFFFFFFFFFFFFFFF DUP2 GT ISZERO PUSH2 0xAC7 JUMPI PUSH1 0x0 DUP1 REVERT JUMPDEST PUSH2 0xAD3 DUP7 DUP3 DUP8 ADD PUSH2 0xA0E JUMP JUMPDEST SWAP2 POP POP SWAP3 POP SWAP3 POP SWAP3 JUMP JUMPDEST PUSH1 0x0 PUSH1 0x20 DUP3 DUP5 SUB SLT ISZERO PUSH2 0xAEF JUMPI PUSH1 0x0 DUP1 REVERT JUMPDEST PUSH1 0x0 DUP3 ADD CALLDATALOAD PUSH8 0xFFFFFFFFFFFFFFFF DUP2 GT ISZERO PUSH2 0xB09 JUMPI PUSH1 0x0 DUP1 REVERT JUMPDEST PUSH2 0xB15 DUP5 DUP3 DUP6 ADD PUSH2 0xA0E JUMP JUMPDEST SWAP2 POP POP SWAP3 SWAP2 POP POP JUMP JUMPDEST PUSH1 0x0 PUSH1 0x20 DUP3 DUP5 SUB SLT ISZERO PUSH2 0xB30 JUMPI PUSH1 0x0 DUP1 REVERT JUMPDEST PUSH1 0x0 PUSH2 0xB3E DUP5 DUP3 DUP6 ADD PUSH2 0xA38 JUMP JUMPDEST SWAP2 POP POP SWAP3 SWAP2 POP POP JUMP JUMPDEST PUSH2 0xB50 DUP2 PUSH2 0x1142 JUMP JUMPDEST DUP3 MSTORE POP POP JUMP JUMPDEST PUSH1 0x0 PUSH2 0xB61 DUP3 PUSH2 0x1110 JUMP JUMPDEST PUSH2 0xB6B DUP2 DUP6 PUSH2 0x1126 JUMP JUMPDEST SWAP4 POP PUSH2 0xB7B DUP2 DUP6 PUSH1 0x20 DUP7 ADD PUSH2 0x119F JUMP JUMPDEST PUSH2 0xB84 DUP2 PUSH2 0x126C JUMP JUMPDEST DUP5 ADD SWAP2 POP POP SWAP3 SWAP2 POP POP JUMP JUMPDEST PUSH1 0x0 PUSH2 0xB9A DUP3 PUSH2 0x1110 JUMP JUMPDEST PUSH2 0xBA4 DUP2 DUP6 PUSH2 0x1137 JUMP JUMPDEST SWAP4 POP PUSH2 0xBB4 DUP2 DUP6 PUSH1 0x20 DUP7 ADD PUSH2 0x119F JUMP JUMPDEST DUP1 DUP5 ADD SWAP2 POP POP SWAP3 SWAP2 POP POP JUMP JUMPDEST PUSH1 0x0 PUSH2 0xBCD PUSH1 0x37 DUP4 PUSH2 0x1126 JUMP JUMPDEST SWAP2 POP PUSH32 0x596F75206D75737420626520746865206D616E61676572206F66207468652063 PUSH1 0x0 DUP4 ADD MSTORE PUSH32 0x6F6E646F6D696E69756D20746F2077697468647261772E000000000000000000 PUSH1 0x20 DUP4 ADD MSTORE PUSH1 0x40 DUP3 ADD SWAP1 POP SWAP2 SWAP1 POP JUMP JUMPDEST PUSH1 0x0 PUSH2 0xC33 PUSH1 0x18 DUP4 PUSH2 0x1126 JUMP JUMPDEST SWAP2 POP PUSH32 0x5265656E7472616E742063616C6C206465746563746564210000000000000000 PUSH1 0x0 DUP4 ADD MSTORE PUSH1 0x20 DUP3 ADD SWAP1 POP SWAP2 SWAP1 POP JUMP JUMPDEST PUSH1 0x0 PUSH2 0xC73 PUSH1 0x42 DUP4 PUSH2 0x1126 JUMP JUMPDEST SWAP2 POP PUSH32 0x596F75206D75737420626520746865206D616E6167657220746F207365742074 PUSH1 0x0 DUP4 ADD MSTORE PUSH32 0x68652064656661756C7420666565206F662074686520636F6E646F6D696E6975 PUSH1 0x20 DUP4 ADD MSTORE PUSH32 0x6D2E000000000000000000000000000000000000000000000000000000000000 PUSH1 0x40 DUP4 ADD MSTORE PUSH1 0x60 DUP3 ADD SWAP1 POP SWAP2 SWAP1 POP JUMP JUMPDEST PUSH1 0x0 PUSH2 0xCFF PUSH1 0x9 DUP4 PUSH2 0x1137 JUMP JUMPDEST SWAP2 POP PUSH32 0x2E20546F74616C3A200000000000000000000000000000000000000000000000 PUSH1 0x0 DUP4 ADD MSTORE PUSH1 0x9 DUP3 ADD SWAP1 POP SWAP2 SWAP1 POP JUMP JUMPDEST PUSH1 0x0 PUSH2 0xD3F PUSH1 0x8 DUP4 PUSH2 0x1137 JUMP JUMPDEST SWAP2 POP PUSH32 0x526561736F6E3A20000000000000000000000000000000000000000000000000 PUSH1 0x0 DUP4 ADD MSTORE PUSH1 0x8 DUP3 ADD SWAP1 POP SWAP2 SWAP1 POP JUMP JUMPDEST PUSH1 0x0 PUSH2 0xD7F PUSH1 0x3B DUP4 PUSH2 0x1126 JUMP JUMPDEST SWAP2 POP PUSH32 0x596F75206D75737420626520746865206D616E6167657220746F207365742074 PUSH1 0x0 DUP4 ADD MSTORE PUSH32 0x6865206E616D65206F662074686520636F6E646F6D696E69756D2E0000000000 PUSH1 0x20 DUP4 ADD MSTORE PUSH1 0x40 DUP3 ADD SWAP1 POP SWAP2 SWAP1 POP JUMP JUMPDEST PUSH1 0x0 PUSH2 0xDE5 PUSH1 0x0 DUP4 PUSH2 0x111B JUMP JUMPDEST SWAP2 POP PUSH1 0x0 DUP3 ADD SWAP1 POP SWAP2 SWAP1 POP JUMP JUMPDEST PUSH1 0x0 PUSH2 0xDFF PUSH1 0x10 DUP4 PUSH2 0x1126 JUMP JUMPDEST SWAP2 POP PUSH32 0x5472616E73666572206661696C65642E00000000000000000000000000000000 PUSH1 0x0 DUP4 ADD MSTORE PUSH1 0x20 DUP3 ADD SWAP1 POP SWAP2 SWAP1 POP JUMP JUMPDEST PUSH1 0x0 PUSH2 0xE3F PUSH1 0x3F DUP4 PUSH2 0x1126 JUMP JUMPDEST SWAP2 POP PUSH32 0x596F75206D75737420626520746865206D616E61676572206F66207468652063 PUSH1 0x0 DUP4 ADD MSTORE PUSH32 0x6F6E646F6D696E69756D20746F2073656520616C6C2062616C616E6365732E00 PUSH1 0x20 DUP4 ADD MSTORE PUSH1 0x40 DUP3 ADD SWAP1 POP SWAP2 SWAP1 POP JUMP JUMPDEST PUSH1 0x0 PUSH2 0xEA5 PUSH1 0x2C DUP4 PUSH2 0x1126 JUMP JUMPDEST SWAP2 POP PUSH32 0x596F75206861766520696E7375666669656E742066756E647320746F20646F20 PUSH1 0x0 DUP4 ADD MSTORE PUSH32 0x746865207061796D656E742E0000000000000000000000000000000000000000 PUSH1 0x20 DUP4 ADD MSTORE PUSH1 0x40 DUP3 ADD SWAP1 POP SWAP2 SWAP1 POP JUMP JUMPDEST PUSH2 0xF07 DUP2 PUSH2 0x1186 JUMP JUMPDEST DUP3 MSTORE POP POP JUMP JUMPDEST PUSH2 0xF1E PUSH2 0xF19 DUP3 PUSH2 0x1186 JUMP JUMPDEST PUSH2 0x1204 JUMP JUMPDEST DUP3 MSTORE POP POP JUMP JUMPDEST PUSH1 0x0 PUSH2 0xF2F DUP3 PUSH2 0xD32 JUMP JUMPDEST SWAP2 POP PUSH2 0xF3B DUP3 DUP6 PUSH2 0xB8F JUMP JUMPDEST SWAP2 POP PUSH2 0xF46 DUP3 PUSH2 0xCF2 JUMP JUMPDEST SWAP2 POP PUSH2 0xF52 DUP3 DUP5 PUSH2 0xF0D JUMP JUMPDEST PUSH1 0x20 DUP3 ADD SWAP2 POP DUP2 SWAP1 POP SWAP4 SWAP3 POP POP POP JUMP JUMPDEST PUSH1 0x0 PUSH2 0xF6D DUP3 PUSH2 0xDD8 JUMP JUMPDEST SWAP2 POP DUP2 SWAP1 POP SWAP2 SWAP1 POP JUMP JUMPDEST PUSH1 0x0 PUSH1 0x20 DUP3 ADD SWAP1 POP PUSH2 0xF8C PUSH1 0x0 DUP4 ADD DUP5 PUSH2 0xB47 JUMP JUMPDEST SWAP3 SWAP2 POP POP JUMP JUMPDEST PUSH1 0x0 PUSH1 0x20 DUP3 ADD SWAP1 POP DUP2 DUP2 SUB PUSH1 0x0 DUP4 ADD MSTORE PUSH2 0xFAC DUP2 DUP5 PUSH2 0xB56 JUMP JUMPDEST SWAP1 POP SWAP3 SWAP2 POP POP JUMP JUMPDEST PUSH1 0x0 PUSH1 0x20 DUP3 ADD SWAP1 POP DUP2 DUP2 SUB PUSH1 0x0 DUP4 ADD MSTORE PUSH2 0xFCD DUP2 PUSH2 0xBC0 JUMP JUMPDEST SWAP1 POP SWAP2 SWAP1 POP JUMP JUMPDEST PUSH1 0x0 PUSH1 0x20 DUP3 ADD SWAP1 POP DUP2 DUP2 SUB PUSH1 0x0 DUP4 ADD MSTORE PUSH2 0xFED DUP2 PUSH2 0xC26 JUMP JUMPDEST SWAP1 POP SWAP2 SWAP1 POP JUMP JUMPDEST PUSH1 0x0 PUSH1 0x20 DUP3 ADD SWAP1 POP DUP2 DUP2 SUB PUSH1 0x0 DUP4 ADD MSTORE PUSH2 0x100D DUP2 PUSH2 0xC66 JUMP JUMPDEST SWAP1 POP SWAP2 SWAP1 POP JUMP JUMPDEST PUSH1 0x0 PUSH1 0x20 DUP3 ADD SWAP1 POP DUP2 DUP2 SUB PUSH1 0x0 DUP4 ADD MSTORE PUSH2 0x102D DUP2 PUSH2 0xD72 JUMP JUMPDEST SWAP1 POP SWAP2 SWAP1 POP JUMP JUMPDEST PUSH1 0x0 PUSH1 0x20 DUP3 ADD SWAP1 POP DUP2 DUP2 SUB PUSH1 0x0 DUP4 ADD MSTORE PUSH2 0x104D DUP2 PUSH2 0xDF2 JUMP JUMPDEST SWAP1 POP SWAP2 SWAP1 POP JUMP JUMPDEST PUSH1 0x0 PUSH1 0x20 DUP3 ADD SWAP1 POP DUP2 DUP2 SUB PUSH1 0x0 DUP4 ADD MSTORE PUSH2 0x106D DUP2 PUSH2 0xE32 JUMP JUMPDEST SWAP1 POP SWAP2 SWAP1 POP JUMP JUMPDEST PUSH1 0x0 PUSH1 0x20 DUP3 ADD SWAP1 POP DUP2 DUP2 SUB PUSH1 0x0 DUP4 ADD MSTORE PUSH2 0x108D DUP2 PUSH2 0xE98 JUMP JUMPDEST SWAP1 POP SWAP2 SWAP1 POP JUMP JUMPDEST PUSH1 0x0 PUSH1 0x20 DUP3 ADD SWAP1 POP PUSH2 0x10A9 PUSH1 0x0 DUP4 ADD DUP5 PUSH2 0xEFE JUMP JUMPDEST SWAP3 SWAP2 POP POP JUMP JUMPDEST PUSH1 0x0 PUSH1 0x40 MLOAD SWAP1 POP DUP2 DUP2 ADD DUP2 DUP2 LT PUSH8 0xFFFFFFFFFFFFFFFF DUP3 GT OR ISZERO PUSH2 0x10D6 JUMPI PUSH2 0x10D5 PUSH2 0x123D JUMP JUMPDEST JUMPDEST DUP1 PUSH1 0x40 MSTORE POP SWAP2 SWAP1 POP JUMP JUMPDEST PUSH1 0x0 PUSH8 0xFFFFFFFFFFFFFFFF DUP3 GT ISZERO PUSH2 0x10FB JUMPI PUSH2 0x10FA PUSH2 0x123D JUMP JUMPDEST JUMPDEST PUSH1 0x1F NOT PUSH1 0x1F DUP4 ADD AND SWAP1 POP PUSH1 0x20 DUP2 ADD SWAP1 POP SWAP2 SWAP1 POP JUMP JUMPDEST PUSH1 0x0 DUP2 MLOAD SWAP1 POP SWAP2 SWAP1 POP JUMP JUMPDEST PUSH1 0x0 DUP2 SWAP1 POP SWAP3 SWAP2 POP POP JUMP JUMPDEST PUSH1 0x0 DUP3 DUP3 MSTORE PUSH1 0x20 DUP3 ADD SWAP1 POP SWAP3 SWAP2 POP POP JUMP JUMPDEST PUSH1 0x0 DUP2 SWAP1 POP SWAP3 SWAP2 POP POP JUMP JUMPDEST PUSH1 0x0 PUSH2 0x114D DUP3 PUSH2 0x1166 JUMP JUMPDEST SWAP1 POP SWAP2 SWAP1 POP JUMP JUMPDEST PUSH1 0x0 PUSH2 0x115F DUP3 PUSH2 0x1166 JUMP JUMPDEST SWAP1 POP SWAP2 SWAP1 POP JUMP JUMPDEST PUSH1 0x0 PUSH20 0xFFFFFFFFFFFFFFFFFFFFFFFFFFFFFFFFFFFFFFFF DUP3 AND SWAP1 POP SWAP2 SWAP1 POP JUMP JUMPDEST PUSH1 0x0 DUP2 SWAP1 POP SWAP2 SWAP1 POP JUMP JUMPDEST DUP3 DUP2 DUP4 CALLDATACOPY PUSH1 0x0 DUP4 DUP4 ADD MSTORE POP POP POP JUMP JUMPDEST PUSH1 0x0 JUMPDEST DUP4 DUP2 LT ISZERO PUSH2 0x11BD JUMPI DUP1 DUP3 ADD MLOAD DUP2 DUP5 ADD MSTORE PUSH1 0x20 DUP2 ADD SWAP1 POP PUSH2 0x11A2 JUMP JUMPDEST DUP4 DUP2 GT ISZERO PUSH2 0x11CC JUMPI PUSH1 0x0 DUP5 DUP5 ADD MSTORE JUMPDEST POP POP POP POP JUMP JUMPDEST PUSH1 0x0 PUSH1 0x2 DUP3 DIV SWAP1 POP PUSH1 0x1 DUP3 AND DUP1 PUSH2 0x11EA JUMPI PUSH1 0x7F DUP3 AND SWAP2 POP JUMPDEST PUSH1 0x20 DUP3 LT DUP2 EQ ISZERO PUSH2 0x11FE JUMPI PUSH2 0x11FD PUSH2 0x120E JUMP JUMPDEST JUMPDEST POP SWAP2 SWAP1 POP JUMP JUMPDEST PUSH1 0x0 DUP2 SWAP1 POP SWAP2 SWAP1 POP JUMP JUMPDEST PUSH32 0x4E487B7100000000000000000000000000000000000000000000000000000000 PUSH1 0x0 MSTORE PUSH1 0x22 PUSH1 0x4 MSTORE PUSH1 0x24 PUSH1 0x0 REVERT JUMPDEST PUSH32 0x4E487B7100000000000000000000000000000000000000000000000000000000 PUSH1 0x0 MSTORE PUSH1 0x41 PUSH1 0x4 MSTORE PUSH1 0x24 PUSH1 0x0 REVERT JUMPDEST PUSH1 0x0 PUSH1 0x1F NOT PUSH1 0x1F DUP4 ADD AND SWAP1 POP SWAP2 SWAP1 POP JUMP JUMPDEST PUSH2 0x1286 DUP2 PUSH2 0x1142 JUMP JUMPDEST DUP2 EQ PUSH2 0x1291 JUMPI PUSH1 0x0 DUP1 REVERT JUMPDEST POP JUMP JUMPDEST PUSH2 0x129D DUP2 PUSH2 0x1154 JUMP JUMPDEST DUP2 EQ PUSH2 0x12A8 JUMPI PUSH1 0x0 DUP1 REVERT JUMPDEST POP JUMP JUMPDEST PUSH2 0x12B4 DUP2 PUSH2 0x1186 JUMP JUMPDEST DUP2 EQ PUSH2 0x12BF JUMPI PUSH1 0x0 DUP1 REVERT JUMPDEST POP JUMP INVALID LOG2 PUSH5 0x6970667358 0x22 SLT KECCAK256 DUP2 SWAP14 0xD1 0xB1 0xB5 RETURNDATACOPY 0xC1 JUMPDEST POP 0xE5 PUSH30 0xCC9C5E795533A59FEBBDCA93BD66DC28F25BE8377264736F6C6343000800 STOP CALLER "
        },
        "methodIdentifiers": {
          "condominiumDefaultFee()": "2eef4d37",
          "condominiumManager()": "23ebe350",
          "condominiumName()": "0bba1847",
          "getCondominiumBalance()": "60697c4a",
          "payCondominiumBill(address,uint256,string)": "5816592f",
          "payCondominiumFee()": "5898b043",
          "setCondominiumDefaultFee(uint256)": "3986fc63",
          "setCondominiumName(string)": "451cf070",
          "withdrawHistory(address)": "36842611"
        }
      }
    }
  }
}