{
  "_format": "hh-sol-artifact-1",
  "contractName": "Condominium",
  "sourceName": "contracts/CondominiumContract.sol",
  "abi": [
    {
      "inputs": [],
      "stateMutability": "nonpayable",
      "type": "constructor"
    },
    {
      "inputs": [],
      "name": "condominiumDefaultFee",
      "outputs": [
        {
          "internalType": "uint256",
          "name": "",
          "type": "uint256"
        }
      ],
      "stateMutability": "view",
      "type": "function"
    },
    {
      "inputs": [],
      "name": "condominiumManager",
      "outputs": [
        {
          "internalType": "address",
          "name": "",
          "type": "address"
        }
      ],
      "stateMutability": "view",
      "type": "function"
    },
    {
      "inputs": [],
      "name": "condominiumName",
      "outputs": [
        {
          "internalType": "string",
          "name": "",
          "type": "string"
        }
      ],
      "stateMutability": "view",
      "type": "function"
    },
    {
      "inputs": [],
      "name": "getCondominiumBalance",
      "outputs": [
        {
          "internalType": "uint256",
          "name": "",
          "type": "uint256"
        }
      ],
      "stateMutability": "view",
      "type": "function"
    },
    {
      "inputs": [
        {
          "internalType": "address payable",
          "name": "_to",
          "type": "address"
        },
        {
          "internalType": "uint256",
          "name": "_total",
          "type": "uint256"
        },
        {
          "internalType": "string",
          "name": "_reason",
          "type": "string"
        }
      ],
      "name": "payCondominiumBill",
      "outputs": [],
      "stateMutability": "nonpayable",
      "type": "function"
    },
    {
      "inputs": [
        {
          "internalType": "uint256",
          "name": "_condominiumFee",
          "type": "uint256"
        }
      ],
      "name": "payCondominiumFee",
      "outputs": [],
      "stateMutability": "payable",
      "type": "function"
    },
    {
      "inputs": [
        {
          "internalType": "uint256",
          "name": "_defaultFee",
          "type": "uint256"
        }
      ],
      "name": "setCondominiumDefaultFee",
      "outputs": [],
      "stateMutability": "nonpayable",
      "type": "function"
    },
    {
      "inputs": [
        {
          "internalType": "string",
          "name": "_name",
          "type": "string"
        }
      ],
      "name": "setCondominiumName",
      "outputs": [],
      "stateMutability": "nonpayable",
      "type": "function"
    },
    {
      "inputs": [
        {
          "internalType": "address",
          "name": "",
          "type": "address"
        }
      ],
      "name": "withdrawHistory",
      "outputs": [
        {
          "internalType": "string",
          "name": "",
          "type": "string"
        }
      ],
      "stateMutability": "view",
      "type": "function"
    }
  ],
  "bytecode": "0x60806040526000600460006101000a81548160ff02191690831515021790555034801561002b57600080fd5b50336000806101000a81548173ffffffffffffffffffffffffffffffffffffffff021916908373ffffffffffffffffffffffffffffffffffffffff1602179055506113da8061007b6000396000f3fe6080604052600436106100865760003560e01c806337e1cdf81161005957806337e1cdf8146101495780633986fc6314610165578063451cf0701461018e5780635816592f146101b757806360697c4a146101e057610086565b80630bba18471461008b57806323ebe350146100b65780632eef4d37146100e1578063368426111461010c575b600080fd5b34801561009757600080fd5b506100a061020b565b6040516100ad9190611074565b60405180910390f35b3480156100c257600080fd5b506100cb610299565b6040516100d89190611059565b60405180910390f35b3480156100ed57600080fd5b506100f66102bd565b6040516101039190611176565b60405180910390f35b34801561011857600080fd5b50610133600480360381019061012e9190610ac9565b6102c3565b6040516101409190611074565b60405180910390f35b610163600480360381019061015e9190610b9a565b610363565b005b34801561017157600080fd5b5061018c60048036038101906101879190610b9a565b610523565b005b34801561019a57600080fd5b506101b560048036038101906101b09190610b59565b6105bb565b005b3480156101c357600080fd5b506101de60048036038101906101d99190610af2565b610663565b005b3480156101ec57600080fd5b506101f56108e8565b6040516102029190611176565b60405180910390f35b60018054610218906112b4565b80601f0160208091040260200160405190810160405280929190818152602001828054610244906112b4565b80156102915780601f1061026657610100808354040283529160200191610291565b820191906000526020600020905b81548152906001019060200180831161027457829003601f168201915b505050505081565b60008054906101000a900473ffffffffffffffffffffffffffffffffffffffff1681565b60025481565b600360205280600052604060002060009150905080546102e2906112b4565b80601f016020809104026020016040519081016040528092919081815260200182805461030e906112b4565b801561035b5780601f106103305761010080835404028352916020019161035b565b820191906000526020600020905b81548152906001019060200180831161033e57829003601f168201915b505050505081565b600460009054906101000a900460ff16156103b3576040517f08c379a00000000000000000000000000000000000000000000000000000000081526004016103aa906110b6565b60405180910390fd5b6001600460006101000a81548160ff02191690831515021790555060025481146002546040516020016103e6919061101e565b60405160208183030381529060405290610436576040517f08c379a000000000000000000000000000000000000000000000000000000000815260040161042d9190611074565b60405180910390fd5b5060008060009054906101000a900473ffffffffffffffffffffffffffffffffffffffff1673ffffffffffffffffffffffffffffffffffffffff168260405161047e90611044565b60006040518083038185875af1925050503d80600081146104bb576040519150601f19603f3d011682016040523d82523d6000602084013e6104c0565b606091505b5050905080610504576040517f08c379a00000000000000000000000000000000000000000000000000000000081526004016104fb90611116565b60405180910390fd5b6000600460006101000a81548160ff0219169083151502179055505050565b60008054906101000a900473ffffffffffffffffffffffffffffffffffffffff1673ffffffffffffffffffffffffffffffffffffffff163373ffffffffffffffffffffffffffffffffffffffff16146105b1576040517f08c379a00000000000000000000000000000000000000000000000000000000081526004016105a8906110d6565b60405180910390fd5b8060028190555050565b60008054906101000a900473ffffffffffffffffffffffffffffffffffffffff1673ffffffffffffffffffffffffffffffffffffffff163373ffffffffffffffffffffffffffffffffffffffff1614610649576040517f08c379a0000000000000000000000000000000000000000000000000000000008152600401610640906110f6565b60405180910390fd5b806001908051906020019061065f92919061097f565b5050565b600460009054906101000a900460ff16156106b3576040517f08c379a00000000000000000000000000000000000000000000000000000000081526004016106aa906110b6565b60405180910390fd5b6001600460006101000a81548160ff02191690831515021790555060008054906101000a900473ffffffffffffffffffffffffffffffffffffffff1673ffffffffffffffffffffffffffffffffffffffff163373ffffffffffffffffffffffffffffffffffffffff161461075c576040517f08c379a000000000000000000000000000000000000000000000000000000000815260040161075390611096565b60405180910390fd5b6107646108e8565b8211156107a6576040517f08c379a000000000000000000000000000000000000000000000000000000000815260040161079d90611156565b60405180910390fd5b80826040516020016107b9929190610fe0565b604051602081830303815290604052600360008573ffffffffffffffffffffffffffffffffffffffff1673ffffffffffffffffffffffffffffffffffffffff168152602001908152602001600020908051906020019061081a92919061097f565b5060008373ffffffffffffffffffffffffffffffffffffffff168360405161084190611044565b60006040518083038185875af1925050503d806000811461087e576040519150601f19603f3d011682016040523d82523d6000602084013e610883565b606091505b50509050806108c7576040517f08c379a00000000000000000000000000000000000000000000000000000000081526004016108be90611116565b60405180910390fd5b6000600460006101000a81548160ff02191690831515021790555050505050565b60008060009054906101000a900473ffffffffffffffffffffffffffffffffffffffff1673ffffffffffffffffffffffffffffffffffffffff163373ffffffffffffffffffffffffffffffffffffffff1614610979576040517f08c379a000000000000000000000000000000000000000000000000000000000815260040161097090611136565b60405180910390fd5b47905090565b82805461098b906112b4565b90600052602060002090601f0160209004810192826109ad57600085556109f4565b82601f106109c657805160ff19168380011785556109f4565b828001600101855582156109f4579182015b828111156109f35782518255916020019190600101906109d8565b5b509050610a019190610a05565b5090565b5b80821115610a1e576000816000905550600101610a06565b5090565b6000610a35610a30846111c2565b611191565b905082815260208101848484011115610a4d57600080fd5b610a58848285611272565b509392505050565b600081359050610a6f8161135f565b92915050565b600081359050610a8481611376565b92915050565b600082601f830112610a9b57600080fd5b8135610aab848260208601610a22565b91505092915050565b600081359050610ac38161138d565b92915050565b600060208284031215610adb57600080fd5b6000610ae984828501610a60565b91505092915050565b600080600060608486031215610b0757600080fd5b6000610b1586828701610a75565b9350506020610b2686828701610ab4565b925050604084013567ffffffffffffffff811115610b4357600080fd5b610b4f86828701610a8a565b9150509250925092565b600060208284031215610b6b57600080fd5b600082013567ffffffffffffffff811115610b8557600080fd5b610b9184828501610a8a565b91505092915050565b600060208284031215610bac57600080fd5b6000610bba84828501610ab4565b91505092915050565b610bcc81611224565b82525050565b6000610bdd826111f2565b610be78185611208565b9350610bf7818560208601611281565b610c008161134e565b840191505092915050565b6000610c16826111f2565b610c208185611219565b9350610c30818560208601611281565b80840191505092915050565b6000610c49603783611208565b91507f596f75206d75737420626520746865206d616e61676572206f6620746865206360008301527f6f6e646f6d696e69756d20746f2077697468647261772e0000000000000000006020830152604082019050919050565b6000610caf601883611208565b91507f5265656e7472616e742063616c6c2064657465637465642100000000000000006000830152602082019050919050565b6000610cef604283611208565b91507f596f75206d75737420626520746865206d616e6167657220746f20736574207460008301527f68652064656661756c7420666565206f662074686520636f6e646f6d696e697560208301527f6d2e0000000000000000000000000000000000000000000000000000000000006040830152606082019050919050565b6000610d7b600983611219565b91507f2e20546f74616c3a2000000000000000000000000000000000000000000000006000830152600982019050919050565b6000610dbb600883611219565b91507f526561736f6e3a200000000000000000000000000000000000000000000000006000830152600882019050919050565b6000610dfb601f83611219565b91507f54686520616d6f756e74206e65656420746f20626520657175616c20746f20006000830152601f82019050919050565b6000610e3b603b83611208565b91507f596f75206d75737420626520746865206d616e6167657220746f20736574207460008301527f6865206e616d65206f662074686520636f6e646f6d696e69756d2e00000000006020830152604082019050919050565b6000610ea16000836111fd565b9150600082019050919050565b6000610ebb601083611208565b91507f5472616e73666572206661696c65642e000000000000000000000000000000006000830152602082019050919050565b6000610efb603f83611208565b91507f596f75206d75737420626520746865206d616e61676572206f6620746865206360008301527f6f6e646f6d696e69756d20746f2073656520616c6c2062616c616e6365732e006020830152604082019050919050565b6000610f61602c83611208565b91507f596f75206861766520696e7375666669656e742066756e647320746f20646f2060008301527f746865207061796d656e742e00000000000000000000000000000000000000006020830152604082019050919050565b610fc381611268565b82525050565b610fda610fd582611268565b6112e6565b82525050565b6000610feb82610dae565b9150610ff78285610c0b565b915061100282610d6e565b915061100e8284610fc9565b6020820191508190509392505050565b600061102982610dee565b91506110358284610fc9565b60208201915081905092915050565b600061104f82610e94565b9150819050919050565b600060208201905061106e6000830184610bc3565b92915050565b6000602082019050818103600083015261108e8184610bd2565b905092915050565b600060208201905081810360008301526110af81610c3c565b9050919050565b600060208201905081810360008301526110cf81610ca2565b9050919050565b600060208201905081810360008301526110ef81610ce2565b9050919050565b6000602082019050818103600083015261110f81610e2e565b9050919050565b6000602082019050818103600083015261112f81610eae565b9050919050565b6000602082019050818103600083015261114f81610eee565b9050919050565b6000602082019050818103600083015261116f81610f54565b9050919050565b600060208201905061118b6000830184610fba565b92915050565b6000604051905081810181811067ffffffffffffffff821117156111b8576111b761131f565b5b8060405250919050565b600067ffffffffffffffff8211156111dd576111dc61131f565b5b601f19601f8301169050602081019050919050565b600081519050919050565b600081905092915050565b600082825260208201905092915050565b600081905092915050565b600061122f82611248565b9050919050565b600061124182611248565b9050919050565b600073ffffffffffffffffffffffffffffffffffffffff82169050919050565b6000819050919050565b82818337600083830152505050565b60005b8381101561129f578082015181840152602081019050611284565b838111156112ae576000848401525b50505050565b600060028204905060018216806112cc57607f821691505b602082108114156112e0576112df6112f0565b5b50919050565b6000819050919050565b7f4e487b7100000000000000000000000000000000000000000000000000000000600052602260045260246000fd5b7f4e487b7100000000000000000000000000000000000000000000000000000000600052604160045260246000fd5b6000601f19601f8301169050919050565b61136881611224565b811461137357600080fd5b50565b61137f81611236565b811461138a57600080fd5b50565b61139681611268565b81146113a157600080fd5b5056fea2646970667358221220e823321573190b1ca72511a26518ef87e392625dfc118eaeb4fb2e7409784f0564736f6c63430008000033",
  "linkReferences": {},
  "deployedLinkReferences": {}
}