{
    "_format": "hh-sol-artifact-1",
    "contractName": "Condominium",
    "sourceName": "contracts/CondominiumContract.sol",
    "abi": [
        {
            "inputs": [],
            "stateMutability": "nonpayable",
            "type": "constructor"
        },
        {
            "inputs": [],
            "name": "condominiumDefaultFee",
            "outputs": [
                {
                    "internalType": "uint256",
                    "name": "",
                    "type": "uint256"
                }
            ],
            "stateMutability": "view",
            "type": "function"
        },
        {
            "inputs": [],
            "name": "condominiumManager",
            "outputs": [
                {
                    "internalType": "address",
                    "name": "",
                    "type": "address"
                }
            ],
            "stateMutability": "view",
            "type": "function"
        },
        {
            "inputs": [],
            "name": "condominiumName",
            "outputs": [
                {
                    "internalType": "string",
                    "name": "",
                    "type": "string"
                }
            ],
            "stateMutability": "view",
            "type": "function"
        },
        {
            "inputs": [],
            "name": "getCondominiumBalance",
            "outputs": [
                {
                    "internalType": "uint256",
                    "name": "",
                    "type": "uint256"
                }
            ],
            "stateMutability": "view",
            "type": "function"
        },
        {
            "inputs": [],
            "name": "payCondominiumFee",
            "outputs": [],
            "stateMutability": "payable",
            "type": "function"
        },
        {
            "inputs": [
                {
                    "internalType": "uint256",
                    "name": "_defaultFee",
                    "type": "uint256"
                }
            ],
            "name": "setCondominiumDefaultFee",
            "outputs": [],
            "stateMutability": "nonpayable",
            "type": "function"
        },
        {
            "inputs": [
                {
                    "internalType": "string",
                    "name": "_name",
                    "type": "string"
                }
            ],
            "name": "setCondominiumName",
            "outputs": [],
            "stateMutability": "nonpayable",
            "type": "function"
        }
    ],
    "bytecode": "0x60806040526000600360006101000a81548160ff02191690831515021790555034801561002b57600080fd5b50336000806101000a81548173ffffffffffffffffffffffffffffffffffffffff021916908373ffffffffffffffffffffffffffffffffffffffff160217905550610c158061007b6000396000f3fe6080604052600436106100705760003560e01c80633986fc631161004e5780633986fc63146100f6578063451cf0701461011f5780635898b0431461014857806360697c4a1461015257610070565b80630bba18471461007557806323ebe350146100a05780632eef4d37146100cb575b600080fd5b34801561008157600080fd5b5061008a61017d565b6040516100979190610944565b60405180910390f35b3480156100ac57600080fd5b506100b561020b565b6040516100c29190610929565b60405180910390f35b3480156100d757600080fd5b506100e061022f565b6040516100ed9190610a06565b60405180910390f35b34801561010257600080fd5b5061011d600480360381019061011891906106a2565b610235565b005b34801561012b57600080fd5b5061014660048036038101906101419190610661565b6102cd565b005b610150610375565b005b34801561015e57600080fd5b506101676104aa565b6040516101749190610a06565b60405180910390f35b6001805461018a90610b27565b80601f01602080910402602001604051908101604052809291908181526020018280546101b690610b27565b80156102035780601f106101d857610100808354040283529160200191610203565b820191906000526020600020905b8154815290600101906020018083116101e657829003601f168201915b505050505081565b60008054906101000a900473ffffffffffffffffffffffffffffffffffffffff1681565b60025481565b60008054906101000a900473ffffffffffffffffffffffffffffffffffffffff1673ffffffffffffffffffffffffffffffffffffffff163373ffffffffffffffffffffffffffffffffffffffff16146102c3576040517f08c379a00000000000000000000000000000000000000000000000000000000081526004016102ba90610986565b60405180910390fd5b8060028190555050565b60008054906101000a900473ffffffffffffffffffffffffffffffffffffffff1673ffffffffffffffffffffffffffffffffffffffff163373ffffffffffffffffffffffffffffffffffffffff161461035b576040517f08c379a0000000000000000000000000000000000000000000000000000000008152600401610352906109a6565b60405180910390fd5b8060019080519060200190610371929190610541565b5050565b600360009054906101000a900460ff16156103c5576040517f08c379a00000000000000000000000000000000000000000000000000000000081526004016103bc90610966565b60405180910390fd5b6001600360006101000a81548160ff02191690831515021790555060003373ffffffffffffffffffffffffffffffffffffffff163460405161040690610914565b60006040518083038185875af1925050503d8060008114610443576040519150601f19603f3d011682016040523d82523d6000602084013e610448565b606091505b505090508061048c576040517f08c379a0000000000000000000000000000000000000000000000000000000008152600401610483906109c6565b60405180910390fd5b6000600360006101000a81548160ff02191690831515021790555050565b60008060009054906101000a900473ffffffffffffffffffffffffffffffffffffffff1673ffffffffffffffffffffffffffffffffffffffff163373ffffffffffffffffffffffffffffffffffffffff161461053b576040517f08c379a0000000000000000000000000000000000000000000000000000000008152600401610532906109e6565b60405180910390fd5b47905090565b82805461054d90610b27565b90600052602060002090601f01602090048101928261056f57600085556105b6565b82601f1061058857805160ff19168380011785556105b6565b828001600101855582156105b6579182015b828111156105b557825182559160200191906001019061059a565b5b5090506105c391906105c7565b5090565b5b808211156105e05760008160009055506001016105c8565b5090565b60006105f76105f284610a52565b610a21565b90508281526020810184848401111561060f57600080fd5b61061a848285610ae5565b509392505050565b600082601f83011261063357600080fd5b81356106438482602086016105e4565b91505092915050565b60008135905061065b81610bc8565b92915050565b60006020828403121561067357600080fd5b600082013567ffffffffffffffff81111561068d57600080fd5b61069984828501610622565b91505092915050565b6000602082840312156106b457600080fd5b60006106c28482850161064c565b91505092915050565b6106d481610aa9565b82525050565b60006106e582610a82565b6106ef8185610a98565b93506106ff818560208601610af4565b61070881610bb7565b840191505092915050565b6000610720601883610a98565b91507f5265656e7472616e742063616c6c2064657465637465642100000000000000006000830152602082019050919050565b6000610760604283610a98565b91507f596f75206d75737420626520746865206d616e6167657220746f20736574207460008301527f68652064656661756c7420666565206f662074686520636f6e646f6d696e697560208301527f6d2e0000000000000000000000000000000000000000000000000000000000006040830152606082019050919050565b60006107ec603b83610a98565b91507f596f75206d75737420626520746865206d616e6167657220746f20736574207460008301527f6865206e616d65206f662074686520636f6e646f6d696e69756d2e00000000006020830152604082019050919050565b6000610852600083610a8d565b9150600082019050919050565b600061086c601083610a98565b91507f5472616e73666572206661696c65642e000000000000000000000000000000006000830152602082019050919050565b60006108ac603f83610a98565b91507f596f75206d75737420626520746865206d616e61676572206f6620746865206360008301527f6f6e646f6d696e69756d20746f2073656520616c6c2062616c616e6365732e006020830152604082019050919050565b61090e81610adb565b82525050565b600061091f82610845565b9150819050919050565b600060208201905061093e60008301846106cb565b92915050565b6000602082019050818103600083015261095e81846106da565b905092915050565b6000602082019050818103600083015261097f81610713565b9050919050565b6000602082019050818103600083015261099f81610753565b9050919050565b600060208201905081810360008301526109bf816107df565b9050919050565b600060208201905081810360008301526109df8161085f565b9050919050565b600060208201905081810360008301526109ff8161089f565b9050919050565b6000602082019050610a1b6000830184610905565b92915050565b6000604051905081810181811067ffffffffffffffff82111715610a4857610a47610b88565b5b8060405250919050565b600067ffffffffffffffff821115610a6d57610a6c610b88565b5b601f19601f8301169050602081019050919050565b600081519050919050565b600081905092915050565b600082825260208201905092915050565b6000610ab482610abb565b9050919050565b600073ffffffffffffffffffffffffffffffffffffffff82169050919050565b6000819050919050565b82818337600083830152505050565b60005b83811015610b12578082015181840152602081019050610af7565b83811115610b21576000848401525b50505050565b60006002820490506001821680610b3f57607f821691505b60208210811415610b5357610b52610b59565b5b50919050565b7f4e487b7100000000000000000000000000000000000000000000000000000000600052602260045260246000fd5b7f4e487b7100000000000000000000000000000000000000000000000000000000600052604160045260246000fd5b6000601f19601f8301169050919050565b610bd181610adb565b8114610bdc57600080fd5b5056fea2646970667358221220027f66723abf3fa2a9834307e8285ce97d9711f0524f7afccc33b864fe1a733e64736f6c63430008000033",
    "linkReferences": {},
    "deployedLinkReferences": {}
}